:020000040000fa
:080000000002040000000000f2
:020000040000fa
:04000800fc030000f5
:020000040000fa
:04000c00fc030000f1
:020000040000fa
:04001000fc030000ed
:020000040000fa
:04001400fc030000e9
:020000040000fa
:04001800fc030000e5
:020000040000fa
:04001c00fc030000e1
:020000040000fa
:04002000fc030000dd
:020000040000fa
:04002400fc030000d9
:020000040000fa
:04002800fc030000d5
:020000040000fa
:04002c00fc030000d1
:020000040000fa
:04003000fc030000cd
:020000040000fa
:04003400fc030000c9
:020000040000fa
:04003800fc030000c5
:020000040000fa
:04003c00fc030000c1
:020000040000fa
:04004000fc030000bd
:020000040000fa
:04004400fc030000b9
:020000040000fa
:04004800fc030000b5
:020000040000fa
:04004c00fc030000b1
:020000040000fa
:04005000fc030000ad
:020000040000fa
:040054000c03000099
:020000040000fa
:04005800fc030000a5
:020000040000fa
:04005c00fc030000a1
:020000040000fa
:04006000fc0300009d
:020000040000fa
:04006400fc03000099
:020000040000fa
:04006800fc03000095
:020000040000fa
:04006c00fc03000091
:020000040000fa
:04007000fc0300008d
:020000040000fa
:04007400c8020000be
:020000040000fa
:04007800fc03000085
:020000040000fa
:04007c00fc03000081
:020000040000fa
:04008000fc0300007d
:020000040000fa
:04008400fc03000079
:020000040000fa
:04008800fc03000075
:020000040000fa
:04008c00fc03000071
:020000040000fa
:04009000fc0300006d
:020000040000fa
:04009400fc03000069
:020000040000fa
:04009800fc03000065
:020000040000fa
:04009c00fc03000061
:020000040000fa
:0400a0004803000011
:020000040000fa
:0400a400fc03000059
:020000040000fa
:0400a800fc03000055
:020000040000fa
:0400ac00fc03000051
:020000040000fa
:0400b000fc0300004d
:020000040000fa
:0400b400fc03000049
:020000040000fa
:0400b800fc03000045
:020000040000fa
:0400bc00fc03000041
:020000040000fa
:0400c000fc0300003d
:020000040000fa
:0400c400fc03000039
:020000040000fa
:0400c800fc03000035
:020000040000fa
:0400cc00fc03000031
:020000040000fa
:0400d000fc0300002d
:020000040000fa
:0400d400fc03000029
:020000040000fa
:0400d800fc03000025
:020000040000fa
:0400dc00fc03000021
:020000040000fa
:0400e000fc0300001d
:020000040000fa
:0400e400fc03000019
:020000040000fa
:0400e800fc03000015
:020000040000fa
:0400ec00fc03000011
:020000040000fa
:0400f000fc0300000d
:020000040000fa
:0400f400fc03000009
:020000040000fa
:0400f800fc03000005
:020000040000fa
:0400fc00fc03000001
:020000040000fa
:04010000fc030000fc
:020000040000fa
:04010400fc030000f8
:020000040000fa
:04010800fc030000f4
:020000040000fa
:04010c00fc030000f0
:020000040000fa
:04011000fc030000ec
:020000040000fa
:04011400fc030000e8
:020000040000fa
:04011800fc030000e4
:020000040000fa
:04011c00fc030000e0
:020000040000fa
:04012000fc030000dc
:020000040000fa
:04012400fc030000d8
:020000040000fa
:04012800fc030000d4
:020000040000fa
:04012c00a00300002c
:020000040000fa
:04013000ce030000fa
:020000040000fa
:04013400fc030000c8
:020000040000fa
:04013800fc030000c4
:020000040000fa
:04013c00fc030000c0
:020000040000fa
:04014000fc030000bc
:020000040000fa
:04014400fc030000b8
:020000040000fa
:04014800fc030000b4
:020000040000fa
:04014c00fc030000b0
:020000040000fa
:04015000fc030000ac
:020000040000fa
:04015400fc030000a8
:020000040000fa
:04015800fc030000a4
:020000040000fa
:04015c00fc030000a0
:020000040000fa
:04016000fc0300009c
:020000040000fa
:04016400fc03000098
:020000040000fa
:04020800fc030000f3
:020000040000fa
:04020c00fc030000ef
:020000040000fa
:04021000fc030000eb
:020000040000fa
:04021400fc030000e7
:020000040000fa
:04021800fc030000e3
:020000040000fa
:04021c00fc030000df
:020000040000fa
:04022000fc030000db
:020000040000fa
:04022400fc030000d7
:020000040000fa
:04022800fc030000d3
:020000040000fa
:04022c00fc030000cf
:020000040000fa
:04023000fc030000cb
:020000040000fa
:04023400fc030000c7
:020000040000fa
:04023800fc030000c3
:020000040000fa
:04023c00fc030000bf
:020000040000fa
:04024000fc030000bb
:020000040000fa
:04024400fc030000b7
:020000040000fa
:04024800fc030000b3
:020000040000fa
:04024c00fc030000af
:020000040000fa
:04025000fc030000ab
:020000040000fa
:04025400fc030000a7
:020000040000fa
:04025800fc030000a3
:020000040000fa
:04025c00fc0300009f
:020000040000fa
:04026000fc0300009b
:020000040000fa
:04026400fc03000097
:020000040000fa
:04026800fc03000093
:020000040000fa
:04026c00fc0300008f
:020000040000fa
:04027000fc0300008b
:020000040000fa
:04027400fc03000087
:020000040000fa
:04027800fc03000083
:020000040000fa
:04027c00fc0300007f
:020000040000fa
:04028000fc0300007b
:020000040000fa
:04028400fc03000077
:020000040000fa
:04028800fc03000073
:020000040000fa
:04028c00fc0300006f
:020000040000fa
:04029000fc0300006b
:020000040000fa
:04029400fc03000067
:020000040000fa
:04029800fc03000063
:020000040000fa
:04029c00fc0300005f
:020000040000fa
:0402a000fc0300005b
:020000040000fa
:0402a400fc03000057
:020000040000fa
:0402a800fc03000053
:020000040000fa
:0402ac00fc0300004f
:020000040000fa
:0402b000fc0300004b
:020000040000fa
:0402b400fc03000047
:020000040000fa
:0402b800fc03000043
:020000040000fa
:0402bc00fc0300003f
:020000040000fa
:0402c000fc0300003b
:020000040000fa
:0402c400fc03000037
:020000040000fa
:0402c800fc03000033
:020000040000fa
:0402cc00fc0300002f
:020000040000fa
:0402d000fc0300002b
:020000040000fa
:0402d400fc03000027
:020000040000fa
:0402d800fc03000023
:020000040000fa
:0402dc00fc0300001f
:020000040000fa
:0402e000fc0300001b
:020000040000fa
:0402e400fc03000017
:020000040000fa
:0402e800fc03000013
:020000040000fa
:0402ec00fc0300000f
:020000040000fa
:0402f000fc0300000b
:020000040000fa
:0402f400fc03000007
:020000040000fa
:0402f800fc03000003
:020000040000fa
:0402fc00fc030000ff
:020000040000fa
:04030000fc030000fa
:020000040000fa
:04030400fc030000f6
:020000040000fa
:04030800fc030000f2
:020000040000fa
:04030c00fc030000ee
:020000040000fa
:04031000fc030000ea
:020000040000fa
:04031400fc030000e6
:020000040000fa
:04031800fc030000e2
:020000040000fa
:04031c00fc030000de
:020000040000fa
:04032000fc030000da
:020000040000fa
:04032400fc030000d6
:020000040000fa
:04032800fc030000d2
:020000040000fa
:04032c00fc030000ce
:020000040000fa
:04033000fc030000ca
:020000040000fa
:04033400fc030000c6
:020000040000fa
:04033800fc030000c2
:020000040000fa
:04033c00fc030000be
:020000040000fa
:04034000fc030000ba
:020000040000fa
:04034400fc030000b6
:020000040000fa
:04034800fc030000b2
:020000040000fa
:04034c00fc030000ae
:020000040000fa
:04035000fc030000aa
:020000040000fa
:04035400fc030000a6
:020000040000fa
:04035800fc030000a2
:020000040000fa
:04035c00fc0300009e
:020000040000fa
:04036000fc0300009a
:020000040000fa
:04036400fc03000096
:020000040000fa
:10040000af8121000e7f22000e0188000000000055
:10041000000020000000e000020032000001200087
:100420002002880014000700f50007000000e0002b
:1004300003003a00a0b920000100200002003700ac
:100440000000200001002000810f70000100320038
:1004500014000700000020000000e000020032004d
:100460000000020000000000ae0b020000000000cf
:100470000040da000000fe004440a9000010200007
:100480000000e0000300320000002000a00188000e
:100490004440a800000006008a1f78008b1f7800e7
:1004a0000000060091018800800478000000eb0045
:1004b0001a003700e284440032a0b4009905ba0063
:1004c000e284440032a0b4009906ba00e2844400f9
:1004d00032a0b4000006eb00476fde00fd07b2005b
:1004e000636ce10003003a00ebff07000000eb0043
:1004f0000a003700606ce10004003a00005deb0088
:100500008b05e900fdff3e00040037006168e10053
:10051000010032000086eb000b00070019c7ba008b
:100520001905ba000e04e00003003a000a00e000da
:10053000e0ff3a0000000600fe07b2009e018800be
:100540008a047800f5ff3700395dba008b05e900b1
:100550000c003200295dba008b05e900080032006a
:100560000c00e00003003a00e284440032a0b40032
:10057000f5ff370019ddba008b05e900faff3a00f4
:100580008904e800e184440032a0b40000000600c1
:100590003600f800809fbe00829fbe00849fbe0090
:1005a000869fbe003400f80000002000a0018800f3
:1005b0000000fa0010168000700060000000e000eb
:1005c00002003a00520307000b0037000060fe00f3
:1005d000ccc2a800860307000004e000030032003c
:1005e000ccc2a900cce2a800c4030700ccc2a90079
:1005f000cce2a9008660a9000080fa003400f9006e
:100600004f03be004f02be004f01be004f00be00b0
:100610003600f900004006003600f800809fbe005a
:10062000829fbe00849fbe00869fbe003400f800fb
:1006300000002000a00188000000fa000060fe0019
:10064000cce2a800ef000700cce2a900ccc2a800d1
:1006500055010700ccc2a900c422a800c402a90009
:10066000c0fd260001002000240407008560a900c9
:100670000080fa003400f9004f03be004f02be00b4
:100680004f01be004f00be003600f90000400600da
:100690003600f800809fbe00829fbe00849fbe008f
:1006a000869fbe003400f80000002000a0018800f2
:1006b0000000fa000060fe00cce2a800f400070091
:1006c000b0c08000e20f50000a003a003001210063
:1006d00010407800f44f500006003a00400121001d
:1006e00010407800e14f400002003a000b01070083
:1006f00003003700cce2a900ccc2a8002a01070001
:10070000ccc2a900cce2a900c422a800c402a9005e
:10071000c0fd260001002000f803070087c0a900e3
:100720000080fa003400f9004f03be004f02be0003
:100730004f01be004f00be003600f9000040060029
:10074000801f78003400f80000002000a00188001d
:100750000200fa0010118000101180006200600099
:100760000000e0000700320030118000004f7800e8
:1007700030118000004f780030118000004f780069
:100780002222a9008c20a9008560a9000080fa001f
:100790003400f9004f00780000400600801f780008
:1007a0003400f80000002000a00188000200fa00d8
:1007b0009011800090118000620060000000e00055
:1007c00007003200b0118000004f7800b0118000a7
:1007d000004f7800b0118000004f78003222a9004d
:1007e0008c40a90087c0a9000080fa003400f900fd
:1007f0004f007800004006000040da000000fe00d4
:0408000000000500ef
:020000040000fa
:100804000031000062530000c4f50000a697000008
:10081400b9880000dbea00007d4c00001f2e0000b8
:10082400437200002110000087b60000e5d40000e8
:10083400facb000098a900003e0f00005c6d000098
:1008440086b70000e4d500004273000020110000c8
:100854003f0e00005d6c0000fbca000099a8000078
:10086400c5f40000a79600000130000063520000a8
:100874007c4d00001e2f0000b8890000daeb000058
:100884003d0c00005f6e0000f9c800009baa000048
:1008940084b50000e6d70000407100002213000078
:1008a4007e4f00001c2d0000ba8b0000d8e9000028
:1008b400c7f60000a5940000033200006150000058
:1008c400bb8a0000d9e800007f4e00001d2c000008
:1008d4000233000060510000c6f70000a495000038
:1008e400f8c900009aab00003c0d00005e6f0000e8
:1008f400417000002312000085b40000e7d6000018
:100904007a4b000018290000be8f0000dced0000c7
:10091400c3f20000a19000000736000065540000f7
:10092400390800005b6a0000fdcc00009fae0000a7
:1009340080b10000e2d300004475000026170000d7
:10094400fccd00009eaf0000380900005a6b000087
:10095400457400002716000081b00000e3d20000b7
:10096400bf8e0000ddec00007b4a00001928000067
:100974000637000064550000c2f30000a091000097
:10098400477600002514000083b20000e1d0000087
:10099400fecf00009cad00003a0b00005869000037
:1009a4000435000066570000c0f10000a293000067
:1009b400bd8c0000dfee0000794800001b2a000017
:1009c400c1f00000a3920000053400006756000047
:1009d400784900001a2b0000bc8d0000deef0000f7
:1009e40082b30000e0d10000467700002415000027
:1009f4003b0a000059680000ffce00009dac0000d7
:020000040000fa
:100a04000000fa0030012100a0c088000000eb00c3
:100a1400c0c088000000eb00b0c088008460a9005a
:100a24000021ef0005e1a8000f003700101180003d
:100a3400610060000000e0000b003200a0c08000f4
:100a4400311180008140780001487800a0c0800006
:100a54000000e800a0c08800b0c080000000e800ea
:100a6400b0c088000021ef0020048000680060000e
:100a74000000e000edff32008460a9000021ef00d7
:100a840005e1a9000080fa00000006000000fa0059
:100a940030012100a0c088000000eb00c0c0880025
:100aa4000000eb00b0c088008460a9000021ef00c2
:100ab40005e1a8000f00370090118000610060007c
:100ac4000000e0000b003200a0c08000b1118000e3
:100ad4008140780001487800a0c080000000e80050
:100ae400a0c08800b0c080000000e800b0c088004a
:100af4000021ef0020048000680060000000e00096
:100b0400edff32008460a9000021ef0005e1a90097
:100b14000080fa00000006000000fa003001210005
:100b2400b1ceb3000148780025020700410121003d
:100b34008048780020002000b0c0880030012100e7
:100b4400a0c08800b0c08000c0c08800100037007a
:100b5400a0c08000104078000080fb00a011880035
:100b6400a0c080000000e800a0c08800c0c08000d1
:100b74000000e900c0c0880000000000911180005e
:100b840000202000008060000000e000fbff3a002d
:100b9400c0c080000000e000edff3a000080fa00d1
:100ba400000006000400fa00c402a800c422a90040
:100bb4007059200001002000cf02070083000700c5
:100bc40050c5b30010479800b0c080004800de0054
:100bd4000040780020479800b0c0800000407800b2
:100be400304798000e00e80031002000a3020700ff
:100bf400004f78001e4090001a0007002e4090001d
:100c0400180007003e409000160007001e407800c0
:100c14001400070030012100a0c088000000eb0090
:100c2400c0c0880009003700a0c0800010407800d0
:100c34000c000700a0c080000000e800a0c08800ed
:100c4400c0c080000000e800c0c08800c1c08000af
:100c5400b0c08000808f5000f3ff39000080fa009c
:100c6400000006000400fa0020479800cd42a900c5
:100c74000000000051168000000021000080600088
:100c84000000e000fbff3a00cd22a900b02c2000b8
:100c94000100200098020700cd42a800b02c2000db
:100ca4000100200094020700cd42a90000000000ca
:100cb4005116800000002100008060000000e00068
:100cc400fbff3a000040eb00004f78001c003700a7
:100cd4002e4090008080fb001e80fb000088de0018
:100ce40000407800614060000080fb00610060000b
:100cf4004900dd00611680000190a1000100700030
:100d040060168800b02c2000010020007a02070041
:100d1400cd42a800b02c200001002000760207007c
:100d2400cd42a900000000005116800000002100ff
:100d3400008060000000e000fbff3a001e4fe80066
:100d44001e407800e74f5000e1ff3600cd22a90095
:100d5400b02c20000100200067020700cd42a8004b
:100d6400b02c20000100200063020700cd42a9003e
:100d74000000000051168000000021000080600087
:100d84000000e000fbff3a00cd22a800b02c2000b8
:100d94000100200058020700cd42a800b02c20001a
:100da4000100200054020700cd42a9000000000009
:100db4005116800000002100008060000000e00067
:100dc400fbff3a000080fa00000006000200fa006f
:100dd400cd42a9000000000051168000000021004f
:100de400008060000000e000fbff3a00cd22a80074
:100df400b02c2000010020003f020700cd42a800d3
:100e0400b02c2000010020003b020700cd42a900c5
:100e140000000000511680000000210000806000e6
:100e24000000e000fbff3a000000eb00000f780038
:100e340010003700cd22a800b02c200001002000b3
:100e44002d020700cd42a800b02c20000100200094
:100e540029020700cd42a9000000000051168000bd
:100e640000002100008060000000e000fbff3a0069
:100e74001e0fe800200220009e007800808f5000a2
:100e8400ecff3600cd22a800b02c20000100200089
:100e940019020700cd42a800b02c20000100200058
:100ea40015020700cd42a900000000005116800081
:100eb40000002100008060000000e000fbff3a0019
:100ec400cd22a800b02c2000010020000a02070057
:100ed400cd42a800b02c200001002000060207002b
:100ee400cd42a9000000000051168000000021003e
:100ef400008060000000e000fbff3a000080fa0080
:100f0400000006000000fa000e000700220007009f
:100f1400c50007004a000700750007009b00070092
:100f2400dd000700c422a800c402a900c0fd2600f9
:100f340001002000f0010700cde2a9000080fa00c2
:100f4400000006000000fa00e0032000303a8800a8
:100f5400213a800000fe2f0000806000203a8800c3
:100f6400213a8000000c200001007000203a880023
:100f74004827ef0040a7a90000000000113a8000b4
:100f840000022000008060000000e000fbff32004f
:100f94000080fa00000006000000fa00103a800009
:100fa400000178000260a1006004200071052000a7
:100fb40023742000804978008149780082497800b0
:100fc4002135800000fe2f00008060000010a0008a
:100fd4002035880011368000f00f2e0080806000dc
:100fe4000030200001007000103688003135800088
:100ff40000fe2f0000806000d000b3003035880070
:101004007136800000fe2f00008060005000b300a5
:1010140070368800103a8000000178000260a00059
:1010240060042000710520002374200080497800aa
:1010340081497800824978000080fa0000000600a7
:101044000200fa0070c0b300004f7800cd42a9003e
:10105400cc82a800cc82a900cc82a8000068ef0052
:1010640000c8bf0080407800501680004500de00b4
:10107400614060000081fb001e00fb000010dd00e9
:101084000040780000c0700000e8b70060c0b30002
:10109400004f78000e003700cd42a800cd42a900d1
:1010a40000c8bf0080407800501680004500de0074
:1010b400614060000081fb001e00fb000010dd00a9
:1010c4000040780000c0700000e8b7001e4fe9003f
:1010d4001e4078000004e000efff3d0000c8bf00a0
:1010e40000c0ea0000e8b7000080fa000000060033
:1010f4000000fa00b70007000080fb00e10f500079
:101104000d003200e10f500003003c000000e0003d
:101114000600320011003700e20f500009003200cf
:10112400e30f50000a0032000c003700c005200015
:101134004011880009003700d002200040118800c7
:1011440006003700e001200040118800030037004a
:10115400e000200040118800000000002022ef0081
:101164002062a8002002a9002222ef0011118000b1
:10117400f0f32f00008060001011880021e2a80025
:101184002342a8000080fa00000006000000fa00d4
:10119400900007000080fb00e10f50000d003200ba
:1011a400e10f500003003c000000e00006003200a4
:1011b40011003700e20f500009003200e30f500025
:1011c4000a0032000c003700c0052000c01188005e
:1011d40009003700d0022000c01188000600370043
:1011e400e0012000c011880003003700e000200067
:1011f400c0118800000000003022ef003062a80017
:101204003002a9003222ef0091118000f0f32f0088
:10121400008060009011880031e2a8003342a800e9
:101224000080fa00000006000000fa000080eb00d5
:1012340060198800c422a800c402a900cdc2a80075
:10124400cc62a800cde2a900c002a900c022a90076
:10125400c082a800c842a800c862a900c882a90028
:10126400c8a2a800c8c2a900c8e2a900c902a8006f
:10127400c922a900c942a900c962a900c982a8005b
:10128400c9a2a800c9c2a900c9e2a900cd62a800e8
:101294000080fa00000006000000fa004d0007007c
:1012a4000080fb00e10f50000d003200e10f500000
:1012b40003003c000000e00006003200110037008b
:1012c400e20f500009003200e30f50000a00320020
:1012d4000c003700d0742100100888000900370082
:1012e40060ba20001008880006003700407c200007
:1012f4001008880003003700203e200010088800f2
:10130400000000000080fa00000006000000fa005f
:1013140021068000f0f82f00808060000006200085
:10132400010070002006880021068000f08f2f0045
:1013340080806000006020000100700020068800aa
:1013440041058000f0ff2800808060000000250037
:10135400010070004005880091058000f08f2f0087
:10136400808060000050200001007000900588001b
:101374008c20a9008c40a9008660a9008560a90082
:1013840087c0a9006000a8009660a8009560a80026
:1013940097c0a8009c20a8009c40a8000080fa00e8
:1013a400000006000000fa009560a90097c0a9009b
:1013b4006000a9009660a9000080fa000000060001
:1013c4000000fa0000408000f043b2000080fa0000
:1013d400000006000000fa00004080004600de0025
:1013e400634060000080fa00000006000400fa0078
:1013f400881f7800010037006f0007005116800035
:1014040000002100008060000000e000faff3200cc
:1014140069000700218020008048780066000700ea
:101424000080fb0020408800204080004804dd004c
:10143400610007000080fb00080070002040880065
:101444005d00070061802000804878002080200033
:1014540010407800004f7800204080004800de00f3
:101464000040780010479800204080000040780039
:10147400204798006080200010447800310020004c
:101484000e0078007d000700804f540002003200f7
:101494000040eb0015003700708020004080880079
:1014a4000000eb006080880009003700488080005d
:1014b40041000700004c7800408080000000e800f4
:1014c40040808800608080000000e8006080880020
:1014d4006180800020408000808f5000f3ff39003d
:1014e400608080005080880010c0b3004f047800f2
:1014f4000080fa00000006000000fa002002a800a4
:101504003002a800cde2a80070802000408088004e
:10151400508080006080880019003700408080007f
:10152400104078000080fb00a011880040808000fb
:10153400104078000080fb0020118800408080006b
:101544000000e80040808800608080000000e9001e
:10155400608088000000000011118000002020003d
:10156400008060000000e000fbff3a009111800061
:1015740000202000008060000000e000f6ff3a0038
:10158400608080000000e000e4ff3a0000000000fa
:101594001111800000102000008060000000e000b5
:1015a400fbff3200cde2a9002002a9003002a9000d
:1015b4000080fa00000006000200fa000040eb0080
:1015c400004f7800cd42a9000000000051168000b1
:1015d40000002100008060000000e000fbff3a00f2
:1015e4000040eb001047980016003700b02c200094
:1015f4000100200040000700cd42a80050168000e2
:101604004800de00614060008080fb001e409000c6
:101614000080fb000008dd00804078001e40780058
:1016240000c07000004f7800b02c200001002000a2
:1016340031000700cd42a9001e4090000040e800a0
:10164400104798001e409000e74f5000e7ff360017
:10165400b02c20000100200027000700cd42a80084
:10166400b02c20000100200023000700cd42a90077
:101674001e4078000080fa00000006000800fa000e
:101684002007980031079800ae009000010f780001
:1016940000c0eb0020479800090037001e007800c6
:1016a400904078002e40900000c068000080fb004d
:1016b4002140280061417800224798001e0fe8006d
:1016c4003e00900000f0a7000000ea000000ea00dd
:1016d4004f00de0000407800be0090008100e90069
:1016e400310798000004e000ecff3a002e4090001f
:0816f4000080fa00000006006e
:020000040000fa
:1016fc00f03fb1000180b10006003500ee03090097
:10170c0000000000403fb1000180b100fbff3d0034
:10171c001000b000203fb00002003500008009002e
:08172c000000000000000600af
:020000040000fa
:101734000008000002000000000000000208000091
:101744000c080000000000000e1000000c0800004f
:0817540000000000000000008d
:020000040000fa
:10175c000000fa00e9fd0700eafe0700c422a80019
:10176c00c402a900c0fd260001002000e0ff070014
:04177c00ffff370034
:020000040000fa
:0200000401f009
:04000000ffff0000fe
:020000040000fa
:0200000401f009
:04000400ffff0000fa
:020000040000fa
:0200000401f009
:04000800ffff0000f6
:020000040000fa
:0200000401f009
:04000c00830000006d
:020000040000fa
:0200000401f009
:04001000a500000047
:020000040000fa
:0200000401f009
:04001400cc0000001c
:020000040000fa
:0200000401f009
:04001800f7000000ed
:020000040000fa
:0200000401f009
:04001c00dfff000002
:00000001FF
